{
  "contractName": "YeastBid",
  "abi": [
    {
      "inputs": [
        {
          "internalType": "address",
          "name": "owner",
          "type": "address"
        },
        {
          "internalType": "uint256",
          "name": "amount",
          "type": "uint256"
        },
        {
          "internalType": "uint256",
          "name": "bidding_phase_end",
          "type": "uint256"
        }
      ],
      "stateMutability": "nonpayable",
      "type": "constructor"
    },
    {
      "inputs": [
        {
          "internalType": "address",
          "name": "",
          "type": "address"
        }
      ],
      "name": "accepted",
      "outputs": [
        {
          "internalType": "uint256",
          "name": "amount",
          "type": "uint256"
        },
        {
          "internalType": "uint256",
          "name": "price",
          "type": "uint256"
        }
      ],
      "stateMutability": "view",
      "type": "function"
    },
    {
      "inputs": [],
      "name": "amount",
      "outputs": [
        {
          "internalType": "uint256",
          "name": "",
          "type": "uint256"
        }
      ],
      "stateMutability": "view",
      "type": "function"
    },
    {
      "inputs": [],
      "name": "bidding_phase_end",
      "outputs": [
        {
          "internalType": "uint256",
          "name": "",
          "type": "uint256"
        }
      ],
      "stateMutability": "view",
      "type": "function"
    },
    {
      "inputs": [],
      "name": "last_phase_start",
      "outputs": [
        {
          "internalType": "uint256",
          "name": "",
          "type": "uint256"
        }
      ],
      "stateMutability": "view",
      "type": "function"
    },
    {
      "inputs": [],
      "name": "owner",
      "outputs": [
        {
          "internalType": "address",
          "name": "",
          "type": "address"
        }
      ],
      "stateMutability": "view",
      "type": "function"
    },
    {
      "inputs": [],
      "name": "phase_number",
      "outputs": [
        {
          "internalType": "uint256",
          "name": "",
          "type": "uint256"
        }
      ],
      "stateMutability": "view",
      "type": "function"
    },
    {
      "inputs": [
        {
          "internalType": "uint256",
          "name": "_hash",
          "type": "uint256"
        }
      ],
      "name": "makeBid",
      "outputs": [],
      "stateMutability": "nonpayable",
      "type": "function"
    },
    {
      "inputs": [
        {
          "internalType": "uint256",
          "name": "amount",
          "type": "uint256"
        },
        {
          "internalType": "uint256",
          "name": "price",
          "type": "uint256"
        },
        {
          "internalType": "uint256",
          "name": "salt",
          "type": "uint256"
        }
      ],
      "name": "revealBid",
      "outputs": [],
      "stateMutability": "nonpayable",
      "type": "function"
    },
    {
      "inputs": [],
      "name": "stopBidding",
      "outputs": [],
      "stateMutability": "nonpayable",
      "type": "function"
    }
  ],
  "bytecode": "0x608060405234801561001057600080fd5b506040516108e43803806108e48339818101604052810190610032919061006c565b6001600581905550505050610125565b600081519050610051816100f7565b92915050565b6000815190506100668161010e565b92915050565b60008060006060848603121561008157600080fd5b600061008f86828701610042565b93505060206100a086828701610057565b92505060406100b186828701610057565b9150509250925092565b60006100c6826100cd565b9050919050565b600073ffffffffffffffffffffffffffffffffffffffff82169050919050565b6000819050919050565b610100816100bb565b811461010b57600080fd5b50565b610117816100ed565b811461012257600080fd5b50565b6107b0806101346000396000f3fe608060405234801561001057600080fd5b50600436106100935760003560e01c80635888e146116100665780635888e1461461010d5780638da5cb5b1461012b578063aa8c217c14610149578063bb700c8014610167578063ca41455c1461018357610093565b8063175b23041461009857806327604337146100b45780632b34af70146100be5780634c4536bc146100ef575b600080fd5b6100b260048036038101906100ad9190610478565b6101a1565b005b6100bc61023a565b005b6100d860048036038101906100d3919061044f565b6102e1565b6040516100e69291906106d6565b60405180910390f35b6100f7610305565b60405161010491906106bb565b60405180910390f35b61011561030b565b60405161012291906106bb565b60405180910390f35b610133610311565b6040516101409190610640565b60405180910390f35b610151610335565b60405161015e91906106bb565b60405180910390f35b610181600480360381019061017c91906104a1565b61033b565b005b61018b61040f565b60405161019891906106bb565b60405180910390f35b426002541180156101b457506001600554145b6101f3576040517f08c379a00000000000000000000000000000000000000000000000000000000081526004016101ea9061065b565b60405180910390fd5b80600360003373ffffffffffffffffffffffffffffffffffffffff1673ffffffffffffffffffffffffffffffffffffffff1681526020019081526020016000208190555050565b60008054906101000a900473ffffffffffffffffffffffffffffffffffffffff1673ffffffffffffffffffffffffffffffffffffffff163373ffffffffffffffffffffffffffffffffffffffff16146102c8576040517f08c379a00000000000000000000000000000000000000000000000000000000081526004016102bf9061069b565b60405180910390fd5b60026005819055506102d8610415565b42600681905550565b60046020528060005260406000206000915090508060000154908060010154905082565b60055481565b60065481565b60008054906101000a900473ffffffffffffffffffffffffffffffffffffffff1681565b60015481565b4260025410801561034e57506002600554145b61038d576040517f08c379a00000000000000000000000000000000000000000000000000000000081526004016103849061067b565b60405180910390fd5b61039933848484610417565b1561040a57604051806040016040528084815260200183815250600460003373ffffffffffffffffffffffffffffffffffffffff1673ffffffffffffffffffffffffffffffffffffffff16815260200190815260200160002060008201518160000155602082015181600101559050505b505050565b60025481565b565b600060019050949350505050565b6000813590506104348161074c565b92915050565b60008135905061044981610763565b92915050565b60006020828403121561046157600080fd5b600061046f84828501610425565b91505092915050565b60006020828403121561048a57600080fd5b60006104988482850161043a565b91505092915050565b6000806000606084860312156104b657600080fd5b60006104c48682870161043a565b93505060206104d58682870161043a565b92505060406104e68682870161043a565b9150509250925092565b6104f981610710565b82525050565b600061050c602a836106ff565b91507f546869732066756e6374696f6e206973207265737472696374656420746f206660008301527f69727374207068617365000000000000000000000000000000000000000000006020830152604082019050919050565b6000610572602b836106ff565b91507f546869732066756e6374696f6e206973207265737472696374656420746f207360008301527f65636f6e642070686173650000000000000000000000000000000000000000006020830152604082019050919050565b60006105d86033836106ff565b91507f546869732066756e6374696f6e206973207265737472696374656420746f207460008301527f686520636f6e74726163742773206f776e6572000000000000000000000000006020830152604082019050919050565b61063a81610742565b82525050565b600060208201905061065560008301846104f0565b92915050565b60006020820190508181036000830152610674816104ff565b9050919050565b6000602082019050818103600083015261069481610565565b9050919050565b600060208201905081810360008301526106b4816105cb565b9050919050565b60006020820190506106d06000830184610631565b92915050565b60006040820190506106eb6000830185610631565b6106f86020830184610631565b9392505050565b600082825260208201905092915050565b600061071b82610722565b9050919050565b600073ffffffffffffffffffffffffffffffffffffffff82169050919050565b6000819050919050565b61075581610710565b811461076057600080fd5b50565b61076c81610742565b811461077757600080fd5b5056fea264697066735822122029ce69a2776c560d9972b1e227eea4be38fbe7e65411f982b3d779a022ca12cc64736f6c63430008000033",
  "immutableReferences": {},
  "source": "// SPDX-License-Identifier: MIT\npragma solidity >=0.8.0;\n\ncontract YeastBid {\n  address public owner;\n  uint public amount;\n  uint public bidding_phase_end;\n\n  struct bid {\n    uint amount;\n    uint price;\n  }\n\n  mapping (address => uint256) private bid_hashes;\n  mapping (address => bid) public accepted;\n\n  uint public phase_number;\n  uint256 public last_phase_start;\n\n  modifier restricted() {\n    require(\n      msg.sender == owner,\n      \"This function is restricted to the contract's owner\"\n    );\n    _;\n  }\n\n  modifier first_phase() {\n    require(\n      (bidding_phase_end > block.timestamp) && (phase_number == 1),\n      \"This function is restricted to first phase\"\n    );\n    _;\n  }\n\n  modifier second_phase() {\n    require(\n      (bidding_phase_end < block.timestamp) && (phase_number == 2),\n      \"This function is restricted to second phase\"\n    );\n    _;\n  }\n\n\n\n  constructor (address owner, uint256 amount, uint bidding_phase_end) {\n    owner = owner;\n    amount = amount;\n    bidding_phase_end = bidding_phase_end;\n    phase_number = 1;\n  }\n\n  function makeBid(uint256 _hash) public first_phase {\n    bid_hashes[msg.sender] = _hash;\n  }\n\n  function revealBid(uint amount, uint price, uint256 salt) public second_phase {\n    if (checkHash(msg.sender, amount, price, salt)){\n      accepted[msg.sender] = bid(amount, price);\n    }\n  }\n\n  function checkHash(address sender, uint amount, uint price, uint256 salt) private returns (bool) {\n    // TODO\n    return true;\n  }\n\n  function stopBidding() public restricted {\n    phase_number = 2;\n\n    evaluateBids();\n\n    last_phase_start = block.timestamp;\n  }\n\n  function evaluateBids() private {\n\n  }\n}\n",
  "sourcePath": "E:/OneDrive/Programming/BME/solidity/YeastBid/contracts/YeastBid.sol",
  "compiler": {
    "name": "solc",
    "version": "0.8.0+commit.c7dfd78e.Emscripten.clang"
  },
  "schemaVersion": "3.4.0",
  "updatedAt": "2021-04-25T18:55:02.221Z",
  "devdoc": {
    "kind": "dev",
    "methods": {},
    "version": 1
  },
  "userdoc": {
    "kind": "user",
    "methods": {},
    "version": 1
  }
}