{
  "contractName": "YeastBid",
  "abi": [
    {
      "inputs": [
        {
          "internalType": "uint256",
          "name": "_blocks",
          "type": "uint256"
        },
        {
          "internalType": "uint256",
          "name": "_life_time",
          "type": "uint256"
        }
      ],
      "stateMutability": "nonpayable",
      "type": "constructor"
    },
    {
      "inputs": [
        {
          "internalType": "address",
          "name": "",
          "type": "address"
        }
      ],
      "name": "revealed_bidders_helper",
      "outputs": [
        {
          "internalType": "bool",
          "name": "",
          "type": "bool"
        }
      ],
      "stateMutability": "view",
      "type": "function",
      "constant": true
    },
    {
      "inputs": [
        {
          "internalType": "address",
          "name": "",
          "type": "address"
        }
      ],
      "name": "revealed_bids",
      "outputs": [
        {
          "internalType": "uint256",
          "name": "amount",
          "type": "uint256"
        },
        {
          "internalType": "uint256",
          "name": "price",
          "type": "uint256"
        }
      ],
      "stateMutability": "view",
      "type": "function",
      "constant": true
    },
    {
      "inputs": [
        {
          "internalType": "uint8",
          "name": "_phase",
          "type": "uint8"
        }
      ],
      "name": "set_phase",
      "outputs": [],
      "stateMutability": "nonpayable",
      "type": "function"
    },
    {
      "inputs": [
        {
          "internalType": "uint256",
          "name": "_hash",
          "type": "uint256"
        }
      ],
      "name": "register_bid_hash",
      "outputs": [],
      "stateMutability": "nonpayable",
      "type": "function"
    },
    {
      "inputs": [
        {
          "internalType": "uint256",
          "name": "salt",
          "type": "uint256"
        },
        {
          "internalType": "uint256",
          "name": "quantity",
          "type": "uint256"
        },
        {
          "internalType": "uint256",
          "name": "price",
          "type": "uint256"
        }
      ],
      "name": "hash_it",
      "outputs": [
        {
          "internalType": "uint256",
          "name": "",
          "type": "uint256"
        }
      ],
      "stateMutability": "pure",
      "type": "function",
      "constant": true
    },
    {
      "inputs": [
        {
          "internalType": "uint256",
          "name": "salt",
          "type": "uint256"
        },
        {
          "internalType": "uint256",
          "name": "quantity",
          "type": "uint256"
        },
        {
          "internalType": "uint256",
          "name": "price",
          "type": "uint256"
        }
      ],
      "name": "reveale_bids",
      "outputs": [],
      "stateMutability": "nonpayable",
      "type": "function"
    },
    {
      "inputs": [
        {
          "internalType": "address[]",
          "name": "_chosen_bids",
          "type": "address[]"
        }
      ],
      "name": "final_phase",
      "outputs": [],
      "stateMutability": "nonpayable",
      "type": "function"
    },
    {
      "inputs": [
        {
          "internalType": "address[]",
          "name": "_chosen_bids",
          "type": "address[]"
        }
      ],
      "name": "disprove",
      "outputs": [],
      "stateMutability": "nonpayable",
      "type": "function"
    }
  ],
  "bytecode": "0x608060405234801561001057600080fd5b506040516200123438038062001234833981810160405281019061003491906100bb565b33600a60006101000a81548173ffffffffffffffffffffffffffffffffffffffff021916908373ffffffffffffffffffffffffffffffffffffffff16021790555081600781905550806009819055506000600a60146101000a81548160ff021916908360ff1602179055505050610118565b6000815190506100b581610101565b92915050565b600080604083850312156100ce57600080fd5b60006100dc858286016100a6565b92505060206100ed858286016100a6565b9150509250929050565b6000819050919050565b61010a816100f7565b811461011557600080fd5b50565b61110c80620001286000396000f3fe608060405234801561001057600080fd5b50600436106100885760003560e01c8063890e3a551161005b578063890e3a551461011157806399b15de51461012d578063a216c71f1461015e578063c5f0b6bd1461017a57610088565b806332ec6dad1461008d57806343e9b6b0146100bd578063502e9eb0146100d957806358ec2bfb146100f5575b600080fd5b6100a760048036038101906100a29190610d00565b6101aa565b6040516100b49190610e29565b60405180910390f35b6100d760048036038101906100d29190610d29565b6101ca565b005b6100f360048036038101906100ee9190610d93565b6104c3565b005b61010f600480360381019061010a9190610d29565b6106b2565b005b61012b60048036038101906101269190610de2565b6108f4565b005b61014760048036038101906101429190610d00565b6109ab565b604051610155929190610e5f565b60405180910390f35b61017860048036038101906101739190610d6a565b6109cf565b005b610194600480360381019061018f9190610d93565b610b41565b6040516101a19190610e44565b60405180910390f35b60036020528060005260406000206000915054906101000a900460ff1681565b6002600a60149054906101000a900460ff1660ff161480156102395750600a60009054906101000a900473ffffffffffffffffffffffffffffffffffffffff1673ffffffffffffffffffffffffffffffffffffffff163373ffffffffffffffffffffffffffffffffffffffff16145b61024257600080fd5b600080600b8190555060005b600680549050811015610492576001600060068381548110610299577f4e487b7100000000000000000000000000000000000000000000000000000000600052603260045260246000fd5b9060005260206000200160009054906101000a900473ffffffffffffffffffffffffffffffffffffffff1673ffffffffffffffffffffffffffffffffffffffff1673ffffffffffffffffffffffffffffffffffffffff168152602001908152602001600020600101546001600060068481548110610340577f4e487b7100000000000000000000000000000000000000000000000000000000600052603260045260246000fd5b9060005260206000200160009054906101000a900473ffffffffffffffffffffffffffffffffffffffff1673ffffffffffffffffffffffffffffffffffffffff1673ffffffffffffffffffffffffffffffffffffffff168152602001908152602001600020600001546103b39190610f3b565b600b60008282546103c49190610ee5565b925050819055506001600060068381548110610409577f4e487b7100000000000000000000000000000000000000000000000000000000600052603260045260246000fd5b9060005260206000200160009054906101000a900473ffffffffffffffffffffffffffffffffffffffff1673ffffffffffffffffffffffffffffffffffffffff1673ffffffffffffffffffffffffffffffffffffffff168152602001908152602001600020600001548261047d9190610ee5565b9150808061048a90610fea565b91505061024e565b5060075481106104a157600080fd5b4260088190555081600690805190602001906104be929190610b63565b505050565b6002600a60149054906101000a900460ff1660ff1614801561052c57506104eb838383610b41565b6000803373ffffffffffffffffffffffffffffffffffffffff1673ffffffffffffffffffffffffffffffffffffffff16815260200190815260200160002054145b61053557600080fd5b604051806040016040528083815260200182815250600160003373ffffffffffffffffffffffffffffffffffffffff1673ffffffffffffffffffffffffffffffffffffffff1681526020019081526020016000206000820151816000015560208201518160010155905050600360003373ffffffffffffffffffffffffffffffffffffffff1673ffffffffffffffffffffffffffffffffffffffff16815260200190815260200160002060009054906101000a900460ff166106ad576001600360003373ffffffffffffffffffffffffffffffffffffffff1673ffffffffffffffffffffffffffffffffffffffff16815260200190815260200160002060006101000a81548160ff0219169083151502179055506005339080600181540180825580915050600190039060005260206000200160009091909190916101000a81548173ffffffffffffffffffffffffffffffffffffffff021916908373ffffffffffffffffffffffffffffffffffffffff1602179055505b505050565b60008060005b835181101561088157600160008583815181106106fe577f4e487b7100000000000000000000000000000000000000000000000000000000600052603260045260246000fd5b602002602001015173ffffffffffffffffffffffffffffffffffffffff1673ffffffffffffffffffffffffffffffffffffffff1681526020019081526020016000206001015460016000868481518110610781577f4e487b7100000000000000000000000000000000000000000000000000000000600052603260045260246000fd5b602002602001015173ffffffffffffffffffffffffffffffffffffffff1673ffffffffffffffffffffffffffffffffffffffff168152602001908152602001600020600001546107d19190610f3b565b836107dc9190610ee5565b92506001600085838151811061081b577f4e487b7100000000000000000000000000000000000000000000000000000000600052603260045260246000fd5b602002602001015173ffffffffffffffffffffffffffffffffffffffff1673ffffffffffffffffffffffffffffffffffffffff168152602001908152602001600020600001548261086c9190610ee5565b9150808061087990610fea565b9150506106b8565b5060075481108015610894575081600b54105b80156108ae57506008546009546108ab9190610ee5565b42105b6108b757600080fd5b6000600a60146101000a81548160ff021916908360ff160217905550600460006108e19190610bed565b600560006108ef9190610bed565b505050565b600a60009054906101000a900473ffffffffffffffffffffffffffffffffffffffff1673ffffffffffffffffffffffffffffffffffffffff163373ffffffffffffffffffffffffffffffffffffffff16148015610955575060008160ff1610155b8015610964575060038160ff16105b80156109845750600a60149054906101000a900460ff1660ff168160ff16115b61098d57600080fd5b80600a60146101000a81548160ff021916908360ff16021790555050565b60016020528060005260406000206000915090508060000154908060010154905082565b6001600a60149054906101000a900460ff1660ff16146109ee57600080fd5b806000803373ffffffffffffffffffffffffffffffffffffffff1673ffffffffffffffffffffffffffffffffffffffff16815260200190815260200160002081905550600260003373ffffffffffffffffffffffffffffffffffffffff1673ffffffffffffffffffffffffffffffffffffffff16815260200190815260200160002060009054906101000a900460ff16610b3e576001600260003373ffffffffffffffffffffffffffffffffffffffff1673ffffffffffffffffffffffffffffffffffffffff16815260200190815260200160002060006101000a81548160ff0219169083151502179055506004339080600181540180825580915050600190039060005260206000200160009091909190916101000a81548173ffffffffffffffffffffffffffffffffffffffff021916908373ffffffffffffffffffffffffffffffffffffffff1602179055505b50565b6000818385610b509190610ee5565b610b5a9190610ee5565b90509392505050565b828054828255906000526020600020908101928215610bdc579160200282015b82811115610bdb5782518260006101000a81548173ffffffffffffffffffffffffffffffffffffffff021916908373ffffffffffffffffffffffffffffffffffffffff16021790555091602001919060010190610b83565b5b509050610be99190610c0e565b5090565b5080546000825590600052602060002090810190610c0b9190610c0e565b50565b5b80821115610c27576000816000905550600101610c0f565b5090565b6000610c3e610c3984610eb9565b610e88565b90508083825260208201905082856020860282011115610c5d57600080fd5b60005b85811015610c8d5781610c738882610c97565b845260208401935060208301925050600181019050610c60565b5050509392505050565b600081359050610ca681611091565b92915050565b600082601f830112610cbd57600080fd5b8135610ccd848260208601610c2b565b91505092915050565b600081359050610ce5816110a8565b92915050565b600081359050610cfa816110bf565b92915050565b600060208284031215610d1257600080fd5b6000610d2084828501610c97565b91505092915050565b600060208284031215610d3b57600080fd5b600082013567ffffffffffffffff811115610d5557600080fd5b610d6184828501610cac565b91505092915050565b600060208284031215610d7c57600080fd5b6000610d8a84828501610cd6565b91505092915050565b600080600060608486031215610da857600080fd5b6000610db686828701610cd6565b9350506020610dc786828701610cd6565b9250506040610dd886828701610cd6565b9150509250925092565b600060208284031215610df457600080fd5b6000610e0284828501610ceb565b91505092915050565b610e1481610fa7565b82525050565b610e2381610fd3565b82525050565b6000602082019050610e3e6000830184610e0b565b92915050565b6000602082019050610e596000830184610e1a565b92915050565b6000604082019050610e746000830185610e1a565b610e816020830184610e1a565b9392505050565b6000604051905081810181811067ffffffffffffffff82111715610eaf57610eae611062565b5b8060405250919050565b600067ffffffffffffffff821115610ed457610ed3611062565b5b602082029050602081019050919050565b6000610ef082610fd3565b9150610efb83610fd3565b9250827fffffffffffffffffffffffffffffffffffffffffffffffffffffffffffffffff03821115610f3057610f2f611033565b5b828201905092915050565b6000610f4682610fd3565b9150610f5183610fd3565b9250817fffffffffffffffffffffffffffffffffffffffffffffffffffffffffffffffff0483118215151615610f8a57610f89611033565b5b828202905092915050565b6000610fa082610fb3565b9050919050565b60008115159050919050565b600073ffffffffffffffffffffffffffffffffffffffff82169050919050565b6000819050919050565b600060ff82169050919050565b6000610ff582610fd3565b91507fffffffffffffffffffffffffffffffffffffffffffffffffffffffffffffffff82141561102857611027611033565b5b600182019050919050565b7f4e487b7100000000000000000000000000000000000000000000000000000000600052601160045260246000fd5b7f4e487b7100000000000000000000000000000000000000000000000000000000600052604160045260246000fd5b61109a81610f95565b81146110a557600080fd5b50565b6110b181610fd3565b81146110bc57600080fd5b50565b6110c881610fdd565b81146110d357600080fd5b5056fea264697066735822122054c71add0d568da37ad08cc3b5a4566583907f4667961bdaa78e775e54640a4764736f6c63430008000033",
  "immutableReferences": {},
  "source": "// SPDX-License-Identifier: MIT\npragma solidity >=0.7.0;\n\ncontract YeastBid {\n\n  struct bids{\n    uint amount;\n    uint price;\n  }\n\n  //mapping is not iterable must store keys seperately\n  mapping (address => uint256) private initial_bids;\n  mapping (address => bids) public revealed_bids;\n\n  //searchin in a list is very inefficient and costly, we store in mapping instead as a bool to see if an array contains an element\n  //https://ethereum.stackexchange.com/questions/27510/solidity-list-contains/27518\n  mapping (address => bool) private initial_bidders_helper;\n  mapping (address => bool) public revealed_bidders_helper;\n\n  address[] initial_bidders;\n  address[] revealed_bidders;\n  address[] accepted_bidders;\n\n  uint blocks;\n  uint start_time;\n  uint life_time;\n  address owner;\n  uint8 phase;\n  uint cum_sum;\n\n  //sets the lifetime of phase 3 of contract\n  constructor (uint _blocks, uint _life_time) {\n    owner = msg.sender;\n    blocks = _blocks;\n    life_time = _life_time;\n    phase = 0;\n  }\n\n  //phases:\n  // 0: cant do nothing\n  // 1: register hashes\n  // 2: reveal hashes\n  // 3: owner choses a set, and begins a timer\n  function set_phase(uint8 _phase) public{\n    //only owner can set phases, and only can move forward\n    require(msg.sender == owner && _phase >= 0 && _phase < 3 && _phase > phase);\n    phase = _phase;\n  }\n\n  //1 address can register only one bid\n  function register_bid_hash(uint _hash) public{\n    require(phase == 1);\n    initial_bids[msg.sender] = _hash;\n    if (!initial_bidders_helper[msg.sender]){\n      initial_bidders_helper[msg.sender] = true;\n      initial_bidders.push(msg.sender);\n    }\n  }\n\n  //https://ethereum.stackexchange.com/questions/65076/match-web3py-hashing-function-to-solidity-hashing-function\n  function hash_it(uint salt, uint quantity, uint price) public pure returns(uint) {\n    return salt+quantity+price;\n  }\n\n  //\n  function reveale_bids(uint salt, uint quantity, uint price) public{\n    require(phase == 2 && initial_bids[msg.sender] == hash_it(salt,quantity,price));\n    revealed_bids[msg.sender] = bids(quantity,price);\n    if (!revealed_bidders_helper[msg.sender]){\n      revealed_bidders_helper[msg.sender] = true;\n      revealed_bidders.push(msg.sender);\n    }\n  }\n\n  function final_phase(address[] memory _chosen_bids) public {\n    require(phase == 2 && msg.sender == owner);\n\n    uint amount = 0;\n    cum_sum = 0;\n    for (uint256 index = 0; index < accepted_bidders.length; index++) {\n      cum_sum += revealed_bids[accepted_bidders[index]].amount*revealed_bids[accepted_bidders[index]].price;\n      amount += revealed_bids[accepted_bidders[index]].amount;\n    }\n\n    require(amount < blocks);\n    start_time = block.timestamp;\n    accepted_bidders = _chosen_bids;\n  }\n\n  function disprove(address[] memory _chosen_bids) public {\n    uint new_cum_sum = 0;\n    uint new_amount = 0;\n    for (uint256 index = 0; index < _chosen_bids.length; index++) {\n      new_cum_sum += revealed_bids[_chosen_bids[index]].amount*revealed_bids[_chosen_bids[index]].price;\n      new_amount += revealed_bids[_chosen_bids[index]].amount;\n    }\n    require( new_amount < blocks && cum_sum < new_cum_sum && block.timestamp < life_time+start_time);\n    phase = 0;\n    delete initial_bidders;\n    delete revealed_bidders;\n  }\n}\n",
  "sourcePath": "/home/tuby/Git/YeastBid/contracts/YeastBid.sol",
  "compiler": {
    "name": "solc",
    "version": "0.8.0+commit.c7dfd78e.Emscripten.clang"
  },
  "schemaVersion": "3.4.0",
  "updatedAt": "2021-05-02T22:33:28.448Z",
  "networkType": "ethereum",
  "devdoc": {
    "kind": "dev",
    "methods": {},
    "version": 1
  },
  "userdoc": {
    "kind": "user",
    "methods": {},
    "version": 1
  }
}