{
  "contractName": "YeastBid",
  "abi": [
    {
      "inputs": [
        {
          "internalType": "uint256",
          "name": "amount",
          "type": "uint256"
        },
        {
          "internalType": "uint256",
          "name": "bidding_phase_end",
          "type": "uint256"
        }
      ],
      "stateMutability": "nonpayable",
      "type": "constructor"
    },
    {
      "inputs": [
        {
          "internalType": "address",
          "name": "",
          "type": "address"
        }
      ],
      "name": "accepted",
      "outputs": [
        {
          "internalType": "uint256",
          "name": "amount",
          "type": "uint256"
        },
        {
          "internalType": "uint256",
          "name": "price",
          "type": "uint256"
        }
      ],
      "stateMutability": "view",
      "type": "function",
      "constant": true
    },
    {
      "inputs": [],
      "name": "amount",
      "outputs": [
        {
          "internalType": "uint256",
          "name": "",
          "type": "uint256"
        }
      ],
      "stateMutability": "view",
      "type": "function",
      "constant": true
    },
    {
      "inputs": [],
      "name": "bidding_phase_end",
      "outputs": [
        {
          "internalType": "uint256",
          "name": "",
          "type": "uint256"
        }
      ],
      "stateMutability": "view",
      "type": "function",
      "constant": true
    },
    {
      "inputs": [],
      "name": "last_phase_start",
      "outputs": [
        {
          "internalType": "uint256",
          "name": "",
          "type": "uint256"
        }
      ],
      "stateMutability": "view",
      "type": "function",
      "constant": true
    },
    {
      "inputs": [],
      "name": "owner",
      "outputs": [
        {
          "internalType": "address",
          "name": "",
          "type": "address"
        }
      ],
      "stateMutability": "view",
      "type": "function",
      "constant": true
    },
    {
      "inputs": [],
      "name": "phase_number",
      "outputs": [
        {
          "internalType": "uint256",
          "name": "",
          "type": "uint256"
        }
      ],
      "stateMutability": "view",
      "type": "function",
      "constant": true
    },
    {
      "inputs": [
        {
          "internalType": "uint256",
          "name": "_hash",
          "type": "uint256"
        }
      ],
      "name": "makeBid",
      "outputs": [],
      "stateMutability": "nonpayable",
      "type": "function"
    },
    {
      "inputs": [
        {
          "internalType": "uint256",
          "name": "amount",
          "type": "uint256"
        },
        {
          "internalType": "uint256",
          "name": "price",
          "type": "uint256"
        },
        {
          "internalType": "uint256",
          "name": "salt",
          "type": "uint256"
        }
      ],
      "name": "revealBid",
      "outputs": [],
      "stateMutability": "nonpayable",
      "type": "function"
    },
    {
      "inputs": [],
      "name": "stopBidding",
      "outputs": [],
      "stateMutability": "nonpayable",
      "type": "function"
    }
  ],
  "bytecode": "0x608060405234801561001057600080fd5b5060405161094038038061094083398181016040528101906100329190610096565b336000806101000a81548173ffffffffffffffffffffffffffffffffffffffff021916908373ffffffffffffffffffffffffffffffffffffffff160217905550600160058190555050506100f3565b600081519050610090816100dc565b92915050565b600080604083850312156100a957600080fd5b60006100b785828601610081565b92505060206100c885828601610081565b9150509250929050565b6000819050919050565b6100e5816100d2565b81146100f057600080fd5b50565b61083e806101026000396000f3fe608060405234801561001057600080fd5b50600436106100935760003560e01c80635888e146116100665780635888e1461461010d5780638da5cb5b1461012b578063aa8c217c14610149578063bb700c8014610167578063ca41455c1461018357610093565b8063175b23041461009857806327604337146100b45780632b34af70146100be5780634c4536bc146100ef575b600080fd5b6100b260048036038101906100ad9190610506565b6101a1565b005b6100bc61023a565b005b6100d860048036038101906100d391906104dd565b6102e1565b6040516100e6929190610764565b60405180910390f35b6100f7610305565b6040516101049190610749565b60405180910390f35b61011561030b565b6040516101229190610749565b60405180910390f35b610133610311565b60405161014091906106ce565b60405180910390f35b610151610335565b60405161015e9190610749565b60405180910390f35b610181600480360381019061017c919061052f565b61033b565b005b61018b61040f565b6040516101989190610749565b60405180910390f35b426002541180156101b457506001600554145b6101f3576040517f08c379a00000000000000000000000000000000000000000000000000000000081526004016101ea906106e9565b60405180910390fd5b80600360003373ffffffffffffffffffffffffffffffffffffffff1673ffffffffffffffffffffffffffffffffffffffff1681526020019081526020016000208190555050565b60008054906101000a900473ffffffffffffffffffffffffffffffffffffffff1673ffffffffffffffffffffffffffffffffffffffff163373ffffffffffffffffffffffffffffffffffffffff16146102c8576040517f08c379a00000000000000000000000000000000000000000000000000000000081526004016102bf90610729565b60405180910390fd5b60026005819055506102d8610415565b42600681905550565b60046020528060005260406000206000915090508060000154908060010154905082565b60055481565b60065481565b60008054906101000a900473ffffffffffffffffffffffffffffffffffffffff1681565b60015481565b4260025410801561034e57506002600554145b61038d576040517f08c379a000000000000000000000000000000000000000000000000000000000815260040161038490610709565b60405180910390fd5b610399338484846104a5565b1561040a57604051806040016040528084815260200183815250600460003373ffffffffffffffffffffffffffffffffffffffff1673ffffffffffffffffffffffffffffffffffffffff16815260200190815260200160002060008201518160000155602082015181600101559050505b505050565b60025481565b60008054906101000a900473ffffffffffffffffffffffffffffffffffffffff1673ffffffffffffffffffffffffffffffffffffffff163373ffffffffffffffffffffffffffffffffffffffff16146104a3576040517f08c379a000000000000000000000000000000000000000000000000000000000815260040161049a90610729565b60405180910390fd5b565b600060019050949350505050565b6000813590506104c2816107da565b92915050565b6000813590506104d7816107f1565b92915050565b6000602082840312156104ef57600080fd5b60006104fd848285016104b3565b91505092915050565b60006020828403121561051857600080fd5b6000610526848285016104c8565b91505092915050565b60008060006060848603121561054457600080fd5b6000610552868287016104c8565b9350506020610563868287016104c8565b9250506040610574868287016104c8565b9150509250925092565b6105878161079e565b82525050565b600061059a602a8361078d565b91507f546869732066756e6374696f6e206973207265737472696374656420746f206660008301527f69727374207068617365000000000000000000000000000000000000000000006020830152604082019050919050565b6000610600602b8361078d565b91507f546869732066756e6374696f6e206973207265737472696374656420746f207360008301527f65636f6e642070686173650000000000000000000000000000000000000000006020830152604082019050919050565b600061066660338361078d565b91507f546869732066756e6374696f6e206973207265737472696374656420746f207460008301527f686520636f6e74726163742773206f776e6572000000000000000000000000006020830152604082019050919050565b6106c8816107d0565b82525050565b60006020820190506106e3600083018461057e565b92915050565b600060208201905081810360008301526107028161058d565b9050919050565b60006020820190508181036000830152610722816105f3565b9050919050565b6000602082019050818103600083015261074281610659565b9050919050565b600060208201905061075e60008301846106bf565b92915050565b600060408201905061077960008301856106bf565b61078660208301846106bf565b9392505050565b600082825260208201905092915050565b60006107a9826107b0565b9050919050565b600073ffffffffffffffffffffffffffffffffffffffff82169050919050565b6000819050919050565b6107e38161079e565b81146107ee57600080fd5b50565b6107fa816107d0565b811461080557600080fd5b5056fea26469706673582212207dda2d555835aef846da1cafedc27daaf9bdd92f60927d01b48dc903da4f690164736f6c63430008000033",
  "immutableReferences": {},
  "source": "// SPDX-License-Identifier: MIT\npragma solidity >=0.8.0;\n\ncontract YeastBid {\n  address public owner;\n  uint public amount;\n  uint public bidding_phase_end;\n\n  struct bid {\n    uint amount;\n    uint price;\n  }\n\n  mapping (address => uint256) private bid_hashes;\n  mapping (address => bid) public accepted;\n\n  uint public phase_number;\n  uint256 public last_phase_start;\n\n  modifier restricted() {\n    require(\n      msg.sender == owner,\n      \"This function is restricted to the contract's owner\"\n    );\n    _;\n  }\n\n  modifier first_phase() {\n    require(\n      (bidding_phase_end > block.timestamp) && (phase_number == 1),\n      \"This function is restricted to first phase\"\n    );\n    _;\n  }\n\n  modifier second_phase() {\n    require(\n      (bidding_phase_end < block.timestamp) && (phase_number == 2),\n      \"This function is restricted to second phase\"\n    );\n    _;\n  }\n\n  modifier third_phase() {\n    require(\n      phase_number == 3,\n      \"This function is restricted to third phase\"\n    );\n    _;\n  }\n\n\n  constructor (uint256 amount, uint bidding_phase_end) {\n    owner = msg.sender;\n    amount = amount;\n    bidding_phase_end = bidding_phase_end;\n    phase_number = 1;\n  }\n\n  function makeBid(uint256 _hash) public first_phase {\n    bid_hashes[msg.sender] = _hash;\n  }\n\n  function revealBid(uint amount, uint price, uint256 salt) public second_phase {\n    if (checkHash(msg.sender, amount, price, salt)){\n      accepted[msg.sender] = bid(amount, price);\n    }\n  }\n\n  function checkHash(address sender, uint amount, uint price, uint256 salt) private returns (bool) {\n    // TODO\n    return true;\n  }\n\n  function stopBidding() public restricted {\n    phase_number = 2;\n\n    evaluateBids();\n\n    last_phase_start = block.timestamp;\n  }\n\n  function evaluateBids() private restricted {\n\n  }\n}\n",
  "sourcePath": "E:/OneDrive/Programming/BME/solidity/YeastBid/contracts/YeastBid.sol",
  "compiler": {
    "name": "solc",
    "version": "0.8.0+commit.c7dfd78e.Emscripten.clang"
  },
  "schemaVersion": "3.4.0",
  "updatedAt": "2021-04-25T19:07:27.815Z",
  "networkType": "ethereum",
  "devdoc": {
    "kind": "dev",
    "methods": {},
    "version": 1
  },
  "userdoc": {
    "kind": "user",
    "methods": {},
    "version": 1
  }
}